{
    "contractName": "Overflow",
    "abi": [
        {
            "inputs": [],
            "name": "overflow",
            "outputs": [
                {
                    "internalType": "uint8",
                    "name": "",
                    "type": "uint8"
                }
            ],
            "stateMutability": "view",
            "type": "function"
        }
    ],
    "bytecode": "6080604052348015600f57600080fd5b5060838061001e6000396000f3fe6080604052348015600f57600080fd5b506004361060275760003560e01c80624264c314602c575b600080fd5b60326048565b6040805160ff9092168252519081900360200190f35b60ff9056fea2646970667358221220b2a5c806599b96d9d8dadcb9dad53f27905aabac43411cf0490937ff447b9cac64736f6c63430006000033",
    "sourcePath": "c:/Users/Phurit/Desktop/Folders/Work/Year 3 Sem 2/Solidity/soliditytry/web3_py_simple_storage/Overflow.sol",
    "compiler": {
        "name": "solc",
        "version": "0.6.0+commit.26b70077"
    },
    "functionHashes": {
        "overflow()": "004264c3"
    },
    "gasEstimates": {
        "creation": {
            "codeDepositCost": "26200",
            "executionCost": "81",
            "totalCost": "26281"
        },
        "external": {
            "overflow()": "185"
        }
    }
}