{
    "contractName": "SimpleStorage",
    "abi": [
        {
            "inputs": [
                {
                    "internalType": "string",
                    "name": "_name",
                    "type": "string"
                },
                {
                    "internalType": "uint256",
                    "name": "_favoriteNumber",
                    "type": "uint256"
                }
            ],
            "name": "addPerson",
            "outputs": [],
            "stateMutability": "nonpayable",
            "type": "function"
        },
        {
            "inputs": [],
            "name": "favoriteNumber",
            "outputs": [
                {
                    "internalType": "uint256",
                    "name": "",
                    "type": "uint256"
                }
            ],
            "stateMutability": "view",
            "type": "function"
        },
        {
            "inputs": [
                {
                    "internalType": "string",
                    "name": "",
                    "type": "string"
                }
            ],
            "name": "nameToFavoriteNumber",
            "outputs": [
                {
                    "internalType": "uint256",
                    "name": "",
                    "type": "uint256"
                }
            ],
            "stateMutability": "view",
            "type": "function"
        },
        {
            "inputs": [
                {
                    "internalType": "uint256",
                    "name": "",
                    "type": "uint256"
                }
            ],
            "name": "people",
            "outputs": [
                {
                    "internalType": "uint256",
                    "name": "favoriteNumber",
                    "type": "uint256"
                },
                {
                    "internalType": "string",
                    "name": "name",
                    "type": "string"
                }
            ],
            "stateMutability": "view",
            "type": "function"
        },
        {
            "inputs": [],
            "name": "person",
            "outputs": [
                {
                    "internalType": "uint256",
                    "name": "favoriteNumber",
                    "type": "uint256"
                },
                {
                    "internalType": "string",
                    "name": "name",
                    "type": "string"
                }
            ],
            "stateMutability": "view",
            "type": "function"
        },
        {
            "inputs": [
                {
                    "internalType": "uint256",
                    "name": "favoriteNumber2",
                    "type": "uint256"
                }
            ],
            "name": "plus",
            "outputs": [],
            "stateMutability": "pure",
            "type": "function"
        },
        {
            "inputs": [],
            "name": "retrieve",
            "outputs": [
                {
                    "internalType": "uint256",
                    "name": "",
                    "type": "uint256"
                }
            ],
            "stateMutability": "view",
            "type": "function"
        },
        {
            "inputs": [
                {
                    "internalType": "uint256",
                    "name": "_favoriteNumber",
                    "type": "uint256"
                }
            ],
            "name": "store",
            "outputs": [],
            "stateMutability": "nonpayable",
            "type": "function"
        }
    ],
    "bytecode": "60026080818152610100604052600760c0818152665061747269636b60c81b60e090815260a091909152600393845591929161003e9160049190610053565b50505034801561004d57600080fd5b506100ee565b828054600181600116156101000203166002900490600052602060002090601f016020900481019282601f1061009457805160ff19168380011785556100c1565b828001600101855582156100c1579182015b828111156100c15782518255916020019190600101906100a6565b506100cd9291506100d1565b5090565b6100eb91905b808211156100cd57600081556001016100d7565b90565b6105e5806100fd6000396000f3fe608060405234801561001057600080fd5b50600436106100885760003560e01c806377ec2b551161005b57806377ec2b55146101765780638bab8dd5146101fd57806395270080146102a35780639e7a13ad146102c057610088565b80632e64cec11461008d578063471f7cdf146100a75780636057361d146100af5780636f760f41146100ce575b600080fd5b6100956102dd565b60408051918252519081900360200190f35b6100956102e4565b6100cc600480360360208110156100c557600080fd5b50356102ea565b005b6100cc600480360360408110156100e457600080fd5b8101906020810181356401000000008111156100ff57600080fd5b82018360208201111561011157600080fd5b8035906020019184600183028401116401000000008311171561013357600080fd5b91908080601f01602080910402602001604051908101604052809392919081815260200183838082843760009201919091525092955050913592506102ef915050565b61017e6103e0565b6040518083815260200180602001828103825283818151815260200191508051906020019080838360005b838110156101c15781810151838201526020016101a9565b50505050905090810190601f1680156101ee5780820380516001836020036101000a031916815260200191505b50935050505060405180910390f35b6100956004803603602081101561021357600080fd5b81019060208101813564010000000081111561022e57600080fd5b82018360208201111561024057600080fd5b8035906020019184600183028401116401000000008311171561026257600080fd5b91908080601f016020809104026020016040519081016040528093929190818152602001838380828437600092019190915250929550610477945050505050565b6100cc600480360360208110156102b957600080fd5b5035610494565b61017e600480360360208110156102d657600080fd5b5035610497565b6000545b90565b60005481565b600055565b604080518082019091528181526020808201848152600180548082018255600091909152835160029091027fb10e2d527612073b26eecdfd717e6a320cf44b4afac2b0732d9fcbe2b7fa0cf68101918255915180519193610375937fb10e2d527612073b26eecdfd717e6a320cf44b4afac2b0732d9fcbe2b7fa0cf70192910190610517565b505050806002836040518082805190602001908083835b602083106103ab5780518252601f19909201916020918201910161038c565b51815160209384036101000a600019018019909216911617905292019485525060405193849003019092209290925550505050565b600380546004805460408051602060026001851615610100026000190190941693909304601f8101849004840282018401909252818152939493929183018282801561046d5780601f106104425761010080835404028352916020019161046d565b820191906000526020600020905b81548152906001019060200180831161045057829003601f168201915b5050505050905082565b805160208183018101805160028252928201919093012091525481565b50565b600181815481106104a457fe5b60009182526020918290206002918202018054600180830180546040805193821615610100026000190190911695909504601f810187900487028301870190955284825291955091939192909183018282801561046d5780601f106104425761010080835404028352916020019161046d565b828054600181600116156101000203166002900490600052602060002090601f016020900481019282601f1061055857805160ff1916838001178555610585565b82800160010185558215610585579182015b8281111561058557825182559160200191906001019061056a565b50610591929150610595565b5090565b6102e191905b80821115610591576000815560010161059b56fea26469706673582212206ec8665d73517d133f52547567e2cfb45a5d7a490a6389963d6506a9393309b664736f6c63430006000033",
    "sourcePath": "c:/Users/Phurit/Desktop/Folders/Work/Year 3 Sem 2/Solidity/soliditytry/web3_py_simple_storage/SimpleStorage.sol",
    "compiler": {
        "name": "solc",
        "version": "0.6.0+commit.26b70077"
    },
    "functionHashes": {
        "addPerson(string,uint256)": "6f760f41",
        "favoriteNumber()": "471f7cdf",
        "nameToFavoriteNumber(string)": "8bab8dd5",
        "people(uint256)": "9e7a13ad",
        "person()": "77ec2b55",
        "plus(uint256)": "95270080",
        "retrieve()": "2e64cec1",
        "store(uint256)": "6057361d"
    },
    "gasEstimates": {
        "creation": {
            "codeDepositCost": "301800",
            "executionCost": "infinite",
            "totalCost": "infinite"
        },
        "external": {
            "addPerson(string,uint256)": "infinite",
            "favoriteNumber()": "1021",
            "nameToFavoriteNumber(string)": "infinite",
            "people(uint256)": "infinite",
            "person()": "infinite",
            "plus(uint256)": "232",
            "retrieve()": "1000",
            "store(uint256)": "20234"
        }
    }
}